:020000040800F2
:10000000008001204D1000089D1000089D10000880
:100010009D1000089D1000089D10000800000000C1
:100020000000000000000000000000009D1000081B
:100030009D100008000000009D1000080D0700083A
:100040009D1000089D1000089D1000089D100008DC
:100050009D1000089D1000089D1000089D100008CC
:100060009D1000089D1000089D1000089D100008BC
:100070009D1000089D1000089D1000089D100008AC
:100080009D1000089D1000089D1000089D1000089C
:100090009D1000089D1000089D1000089D1000088C
:1000A0009D1000089D1000089D1000089D1000087C
:1000B0009D1000089D1000089D1000089D1000086C
:1000C0009D1000089D1000089D1000089D1000085C
:1000D0009D1000089D1000089D1000089D1000084C
:1000E0009D1000089D1000089D1000089D1000083C
:1000F0009D1000089D1000089D1000089D1000082C
:100100009D1000089D1000089D1000089D1000081B
:100110009D1000089D1000089D1000089D1000080B
:100120009D1000089D1000089D1000089D100008FB
:100130009D1000089D1000089D1000089D100008EB
:100140009D1000089D1000089D1000089D100008DB
:100150009D1000089D1000089D1000089D100008CB
:100160009D1000089D1000089D1000089D100008BB
:100170009D1000089D1000089D1000080000000060
:080180009D1000089D1000080D
:1001C0000348044B834202D0034B03B118477047E6
:1001D0000000002000000020000000000548064B41
:1001E0001B1AD90F01EBA301491002D0034B03B135
:1001F00018477047000000200000002000000000A9
:1002000010B5064C237843B9FFF7DAFF044B13B15E
:100210000448AFF300800123237010BD00000020CC
:1002200000000000A010000808B5044B1BB10449F1
:100230000448AFF30080BDE80840CFE700000000AD
:1002400004000020A010000870B50D4E0D4D761B67
:10025000B61006D0002455F8043B01349847A64256
:10026000F9D1094E094D761B00F01AFFB61006D0E1
:10027000002455F8043B01349847A642F9D170BDDB
:1002800038110008381100083C1100083811000826
:10029000000000000000000000000000000000005E
:1002A000000000000000000000000000000000004E
:1002B000000000000000000000000000000000003E
:1002C00090F800F06DE9024520F007016FF0000C96
:1002D00010F0070491F820F040F049804FF000043E
:1002E0006FF00700D1E9002391F840F000F1080019
:1002F00082FA4CF2A4FA8CF283FA4CF3A2FA8CF351
:100300004BBBD1E9022382FA4CF200F10800A4FAB7
:100310008CF283FA4CF3A2FA8CF3E3B9D1E904230B
:1003200082FA4CF200F10800A4FA8CF283FA4CF342
:10033000A2FA8CF37BB9D1E9062301F1200182FAFC
:100340004CF200F10800A4FA8CF283FA4CF3A2FA02
:100350008CF3002BC6D0002A04BF04301A4612BA10
:10036000B2FA82F2FDE8024500EBD2007047D1E913
:10037000002304F00305C4F100004FEAC50514F0A2
:10038000040F91F840F00CFA05F562EA05021CBF73
:1003900063EA050362464FF00004A9E710B504467E
:1003A000FFF78EFF431E002205E0A15CE05CA05435
:1003B000E1540132013B9A42F7DB10BD10B5002831
:1003C00020DB02464FF0000E124B83FB023CD3179A
:1003D000C3EBAC031C4603EB8303A2EB4303F446DD
:1003E0000EF1010E303301F80C3013462246092B72
:1003F000EADC002808DB002301F80E300846FFF78E
:10040000CDFF10BD4242DDE72D2301F80E300CF187
:10041000020EF0E767666666002800DB7047404220
:10042000FCE7002301E000BF01338342FBDB7047A0
:100430008AB0314BB3F892250792B3F89025069213
:1004400093F894250592D3F8942522F0FF020492A4
:10045000D3F898350393049B1B128DF82030049B2E
:100460001B148DF82130049B1B168DF82230039B42
:100470008DF82330039B1B128DF82430039B1B1433
:100480008DF82530039B1B168DF826300AAB13E937
:1004900003000190ADF80810090C8DF80A10174BF5
:1004A000174ADA644FF480721A65164A9A65012277
:1004B000DA651A66144A40F2047111601A6842F44F
:1004C00080721A60114ADA60114A1A611A6842F0A1
:1004D000A0621A60094B1B6813F0007FFAD0074B2B
:1004E0001B6813F0006FFAD0044B03229A60094B8B
:1004F00050221A600AB070470070FF1F00100240BF
:10050000FF30050000C4401000200240020A100124
:10051000000C30032001002001238B4083617047D1
:10052000103101238B408361704708B512B1FFF78A
:10053000F3FF08BDFFF7F4FFFBE7026901238B40DF
:100540001A4201D0012070470020704710B504689E
:100550004FEA410E4FF0030C0CFA0EFC24EA0C0497
:1005600002F0030202FA0EF214430460426801240E
:100570008C4022EA040203F0010303FA01F10A436A
:100580004260836823EA0C03029A02F0030202FA33
:100590000EF213438360C36823EA0C03039A02F04C
:1005A000030202FA0EF21343C36010BD08B50368DC
:1005B0004FEA410E4FF0030C0CFA0EFC23EA0C0339
:1005C0004FF0020C0CFA0EFC43EA0C0303600729FF
:1005D00013D9436AA1F1080C4FEA8C0C4FF00F0EAF
:1005E0000EFA0CFE23EA0E0302F00F0202FA0CF2DE
:1005F00013434362FFF794FF08BD036A4FEA810E7D
:100600004FF00F0C0CFA0EFC23EA0C0302F00F0261
:1006100002FA0EF213430362ECE7000070B582B0F9
:10062000334A536843F4007353604FF090435B6860
:10063000B3F1FF3FF9D02F4B5B68B3F1FF3FFAD026
:100640002D4B5B68B3F1FF3FFAD02C4B5B68B3F1E5
:10065000FF3FFAD02A4B5B68B3F1FF3FFAD0294B3A
:100660005B68B3F1FF3FFAD0274B5B68B3F1FF3F04
:10067000FAD0204E012501950024009423462246FD
:100680000A213046FFF762FF019500942346224677
:100690000B213046FFF75AFF06F54066019400949F
:1006A00023462A4606213046FFF750FF0194009466
:1006B00023462A4605213046FFF748FF019400945F
:1006C00023462A4604213046FFF740FF0194009458
:1006D00023462A4603213046FFF738FF0194009451
:1006E00023462A4602213046FFF730FF02B070BD94
:1006F000007000400004004800080048000C00485A
:10070000001000480014004800180048024A13680E
:1007100001331360704700BF1C01002070B1084B0B
:100720001B68034400E000BF054A12689A42FAD8E9
:1007300000E000BF024A12689A42FAD3704700BF35
:100740001C01002072B6094B1B68002B0BDBDB1071
:100750004FF47A7202FB03F34FF0E022536103235C
:10076000136162B670470733F1E700BF2001002034
:1007700010B5044608461146DAB2C9B2FFF716FFB3
:100780009DF810209DF80C100298FFF70FFF044B06
:10079000E3600023A36063600D23236010BD00BFEE
:1007A00072B6020000E000BFC36913F0800FFAD0F8
:1007B0000185704770B582B00446084611460C9D0D
:1007C0000D9EDAB2C9B2FFF7F1FE9DF820209DF828
:1007D0001C100698FFF7EAFE9DF82C209DF82810C3
:1007E0000998FFF7E3FE012231462846FFF79DFEF8
:1007F000002301930093012231462846FFF7A6FE0D
:100800004FF4B85363604FF45773236002B070BD68
:1008100000E000BF836813F0800FFAD1704700E05A
:1008200000BF836813F0020FFAD0C9B2017300E071
:1008300000BF836813F0020FFAD07047C06880B21F
:10084000704700E000BF836813F0020FFAD0C9B20E
:10085000017300E000BF836813F0020FFAD0D2B238
:10086000027300E000BF836813F0020FFAD07047F4
:100870003AB10368490003228A4023EA0203036075
:1008800070470368490003228A4023EA02030122D9
:100890008A40134303607047F8B515461E46436807
:1008A000012707FA01F223EA020343606B6807FAA3
:1008B00006F223EA02036B60836801FA07F403225D
:1008C00002FA04F423EA040323438360AB6806FAC4
:1008D00007F4A24023EA02031343AB6001F1100CBA
:1008E00007FA0CF4846106F1100307FA03F3AB6115
:1008F0003A46FFF7BDFF3A4631462846FFF7B8FFB4
:10090000F8BD08B51E20FFF78CFD08BDF8B50646FA
:100910000F4614461D460122FFF7AAFF0122294671
:100920002046FFF7A5FFFFF7ECFFFFF7EAFF0022E5
:1009300029462046FFF79CFFFFF7E3FFFFF7E1FFA3
:10094000002239463046FFF793FFFFF7DAFFF8BD84
:10095000F8B506460F4614461D460022FFF788FFED
:10096000002229462046FFF783FFFFF7CAFFFFF763
:10097000C8FF012239463046FFF77AFFFFF7C1FF73
:10098000FFF7BFFF012229462046FFF771FFFFF75F
:10099000B8FFF8BD2DE9F84306460D4690461F46C0
:1009A000DDF8209000241AE0002229463046FFF7A7
:1009B0005FFFFFF7A6FF09FA04F202F08002394652
:1009C0004046FFF755FFFFF79CFF012229463046BE
:1009D000FFF74EFFFFF795FFFFF793FF0134072C5A
:1009E000E2DDBDE8F883F8B506460F4614461D461D
:1009F0000022FFF73DFFFFF784FF01222946204632
:100A0000FFF736FFFFF77DFF012239463046FFF73B
:100A10002FFFFFF776FF29462046FFF78EFD04469D
:100A2000FFF76FFF2046F8BD2DE9F04182B0044684
:100A30000D4616461F46FFF769FF089B5B000093B3
:100A40003B46324629462046FFF7A4FF3B46324646
:100A500029462046FFF7C7FF8046099B00933B4687
:100A6000324629462046FFF795FF3B463246294647
:100A70002046FFF7B8FF80440A9B00933B4632466E
:100A800029462046FFF786FF3B4632462946204648
:100A9000FFF7A9FF80443B46324629462046FFF730
:100AA00057FF404602B0BDE8F0810000F8B50546AA
:100AB0000E46134F00220F213846FFF736FD0A205D
:100AC000FFF7AFFC0F4C324629462046FFF7B9FE30
:100AD0002046FFF7B3FE2046FFF7B0FE2046FFF7A3
:100AE000ADFE2046FFF794FE0A20FFF79AFC012294
:100AF0000F213846FFF719FD0A20FFF792FCF8BDD9
:100B000000180048003C004070B50546144E002215
:100B10000F213046FFF709FD0A20FFF782FC114C38
:100B200045F080012046FFF77AFE2046FFF786FE5B
:100B3000FF212046FFF773FE2046FFF77FFE0546A4
:100B40002046FFF765FE0A20FFF76BFC01220F210C
:100B50003046FFF7EAFC0A20FFF763FC284670BD29
:100B600000180048003C0040F8B50546194F002227
:100B70000F213846FFF7D9FC0A20FFF752FC164C2C
:100B800045F080012046FFF74AFE2046FFF756FE5B
:100B9000FF212046FFF743FE2046FFF74FFE0546A4
:100BA000FF212046FFF73BFE2046FFF747FE0646A3
:100BB0002046FFF72DFE0A20FFF733FC01220F210C
:100BC0003846FFF7B2FC0A20FFF72BFC45EA062067
:100BD00000B2F8BD00180048003C004008B5000114
:100BE00000F47F60890001F03C010843520002F0EC
:100BF000020101431020FFF759FF08BD08B5C9B233
:100C0000000100F47F6001431120FFF74FFF08BD92
:100C1000F0B589B006460F4614461D4612490F230B
:100C20000793124B06930623059303220492039124
:100C3000029304220192009105220D48FFF7BAFDAC
:100C400001211220FFF732FF4FF4FA70FFF7E9FBA2
:100C5000002239463046FFF7C1FF29462046FFF7FC
:100C6000CDFF09B0F0BD00BF0004004800180048E7
:100C7000003C004008B50F20FFF746FF00B208BD5A
:100C800008B52820FFF770FF08BD08B52A20FFF738
:100C90006BFF08BD08B52C20FFF766FF08BD08B53F
:100CA0002220FFF761FF08BD08B52420FFF75CFF95
:100CB00008BD08B52620FFF757FF08BD00B585B071
:100CC000A0B1090141EA8211431E41EA83010D48A6
:100CD00041F001010291092301930D220092024685
:100CE0000821FFF7A1FE05B05DF804FB05480023CD
:100CF0000293092301930D22009202460821FFF777
:100D000093FEF0E7000400482DE9F04385B0054666
:100D10000E4617461E4C0923224608212046FFF79F
:100D2000BBFD802302934FF00A09CDF804904FF0E9
:100D30000D08CDF800800923224608212046FFF740
:100D400073FE3220FFF76DFB00230293CDF8049071
:100D5000CDF800800923224608212046FFF764FED3
:100D6000012302930B230193CDF80080092322462F
:100D700008212046FFF758FE3220FFF752FB3A4683
:100D800031462846FFF79AFF05B0BDE8F08300BF63
:100D90000004004800B585B00649082302930022EC
:100DA0000192009101220448FFF7E2FC05B05DF8D2
:100DB00004FB00BF000800480080004038B505462D
:100DC000002404E0295D0548FFF7ECFC01342846C7
:100DD000FFF776FAA042F5D838BD00BF008000408A
:100DE00010B5041E0ADB2046FFF716FB064C214611
:100DF000FFF7E4FA2046FFF7E1FF10BD2D2103487D
:100E0000FFF7D0FCEFE700BF1C000020008000408F
:100E100010B5044C2146FFF7D1FA2046FFF7CEFF6C
:100E200010BD00BF1C00002010B5054C0D21204650
:100E3000FFF7B8FC0A212046FFF7B4FC10BD00BF45
:100E40000080004008B5FFF7F3FAFFF7E7FBFFF774
:100E500079FC08BDF8B5FFF7F5FF6C4C01220221C3
:100E60002046FFF762FBFFF795FF082309220021C8
:100E70001046FFF7CDFE002201210420FFF744FFBA
:100E8000002202212046FFF750FB6148FFF796FF42
:100E9000604CD4F89005FFF7BBFF5F4D2846FFF785
:100EA0008DFFD4F89405FFF7B3FF2846FFF786FFC0
:100EB000D4F89805FFF7ACFFFFF7B6FFFFF7DAFEAF
:100EC0000A215648FFF739FB074658BB0122042187
:100ED0004E48FFF72AFB01220F214FF09040FFF709
:100EE00065FB4F4A936D43F0010393650120FFF7C3
:100EF00015FC4FF0804351229A6201221A62682247
:100F00009A6102225A6142F21072DA624FF47A72E6
:100F10005A6381221A6040F2DC525A635A630A26ED
:100F200000244EE0394C012202212046FFF7FDFA51
:100F3000012203212046FFF7F8FACCE73948FFF7F2
:100F40003DFF3948FFF73AFF00BFFDE700BF374BD1
:100F500018688242FAD8FFF75BFF354D2846FFF745
:100F60002DFFFFF78DFEFFF73BFF2846FFF726FF1B
:100F7000FFF78BFEFFF734FF2846FFF71FFFFFF751
:100F800089FEFFF72DFF2846FFF718FFFFF787FEC2
:100F9000FFF726FF2846FFF711FFFFF785FEFFF753
:100FA0001FFF2846FFF70AFFFFF783FEFFF718FF32
:100FB0002846FFF703FF2046FFF72AFFFFF734FF1D
:100FC00005361A4B1B683246B342B7D241F288311C
:100FD0008B4206D9A3F59C54083C1649A1FB041486
:100FE000640943F698218B4200D9642444F62061B9
:100FF0008B4200D9002407B93C4604EB840303F27A
:10100000DC534FF080414B63A1E700BF0010004864
:10101000B81000080070FF1FE0100008000400482E
:1010200000100240E4100008101100081C0100200C
:10103000301100081F85EB51034AD2F8883043F481
:101040007003C2F88830704700ED00E0DFF834D05C
:10105000FFF7F2FF0C480D490D4A002302E0D45877
:10106000C4500433C4188C42F9D30A4A0A4C0023F2
:1010700001E013600432A242FBD3FFF7E5F8FFF76B
:10108000E9FEFEE7008001200000002000000020B3
:10109000481100080000002024010020FEE70000A5
:1010A000F8B500BFF8BC08BC9E467047F8B500BF55
:0810B000F8BC08BC9E46704725
:1010B8006F72626974616C20706C6174666F726DB6
:1010C8002072322E206D63752073657269616C2001
:1010D80062797465733A20002C20000063616E6E9B
:1010E8006F74206B6565702075702120726564755A
:1010F8006365206F75747075742064617461207203
:101108006174652E0D0A00006C696D697465642050
:1011180062792075617274206261756420726174ED
:10112800652E0D0A000000002C00000000000000E1
:0811380029020008000000007C
:0811400001020008000000009C
:040000050800104D92
:00000001FF
